:020000040000FA
:1000000018130010D5010000DD010000DF01000021
:10001000E1010000E3010000E50100000000000034
:100020000000000000000000000000006903000064
:10003000E901000000000000E10300001D040000D1
:10004000EF010000EF010000EF010000EF010000F0
:10005000EF010000EF010000EF010000EF010000E0
:10006000EF010000EF010000EF010000EF010000D0
:10007000EF010000EF010000EF0100007D2500000E
:10008000EF010000EF010000EF010000EF010000B0
:10009000EF010000EF010000C9080000EF010000BF
:1000A000EF010000EF010000B1090000EF010000C6
:1000B000EF010000EF010000EF010000EF01000080
:1000C000EF010000EF010000EF01000000F002F876
:1000D00000F05FF80AA090E8000C82448344AAF183
:1000E0000107DA4501D100F054F8AFF2090EBAE881
:1000F0000F0013F0010F18BFFB1A43F0010318475C
:10010000F8610000186200000A444FF0000C10F87B
:10011000013B13F0070408BF10F8014B1D1108BF85
:1001200010F8015B641E05D010F8016B641E01F825
:10013000016BF9D113F0080F1EBF10F8014BAD1C75
:100140000C1B09D16D1E58BF01F801CBFAD505E093
:1001500014F8016B01F8016B6D1EF9D59142D6D3ED
:10016000704700000023002400250026103A28BF15
:1001700078C1FBD8520728BF30C148BF0B60704719
:10018000642900F0CD81002070471FB51FBD10B558
:1001900010BD00F01BFB1146FFF7F7FF0FB400F096
:1001A0000BF80FBC03F02CFA00F071F803B4FFF762
:1001B000EEFF03BC00F004FB04B003F0F1FA0448C6
:1001C000002103F041FB03F0FDFA00F060F80000AD
:1001D000E40000100948804709480047FEE7FEE7B1
:1001E000FEE7FEE7FEE7FEE7FEE7FEE7FEE7FEE7E7
:1001F00004480549034A054B7047000009310000D7
:10020000CD00000018110010181300101811001074
:1002100000487047B41000100FB41CB5074B06AA75
:100220007B4469460090059800F0B1FA00206946C9
:1002300000F0C0FA1CBC5DF814FB00009105000042
:1002400070B5044685690068C10601D5302600E016
:100250002026C00707D070BDD4E901213046904761
:10026000206A401C20626D1EF6D570BD70B5044634
:1002700085690078C00707D170BDD4E9012120202D
:100280009047206A401C20626D1EF6D570BD10B5E7
:100290000446AFF300802046BDE81040FFF786BF5C
:1002A0004FF0000200B5134694469646203922BF0F
:1002B000A0E80C50A0E80C50B1F12001BFF4F7AF5A
:1002C000090728BFA0E80C5048BF0CC05DF804EB3C
:1002D000890028BF40F8042B08BF704748BF20F8AA
:1002E000022B11F0804F18BF00F8012B70477047A8
:1002F000704770477047000000000000FFFFFFFFDD
:1003000080F309887047EFF309807047684680F3EF
:10031000098804480078C00714BF0220032080F336
:1003200014887047A0610000DFF818C0EFF3058360
:100330001B0618BF6047EFF31483DB0708BF604755
:1003400000DF7047F5390000DFF818C0EFF30583D0
:100350001B0618BF6047EFF31483DB0708BF604735
:1003600000DF7047D13B0000EFF30980816911F88D
:10037000021CF1B990E80F10E047EFF3098C8CE80C
:100380000700144B93E8060091420FD039B12CE9D5
:10039000F00FC1F828C00CB403F0AEFF0CBC1A601B
:1003A000D2F828C0BCE8F00F8CF309886FF0020E79
:1003B000704710B5084A1268914209D8074C54F8A2
:1003C000214090E80F10A047EFF3098C8CE80F0054
:1003D00010BD000020010010F8020000F80200002B
:1003E00003F05CFE0C4B93E80600914210D0EFF353
:1003F000098C2CE9F00FC1F828C00CB403F07CFF85
:100400000CBC1A60D2F828C0BCE8F00F8CF3098845
:100410006FF0020E704700002001001004F034F865
:10042000E0E7000003F08CFA04F02EF8DAE70000B1
:1004300053EA020C00F069802DE9F04B4FF0000602
:10044000002B1FBFB3FA83F503FA05F424FA05F66F
:100450005E4012BF1643B2FA82F502FA05F4C5F106
:1004600020051EBF22FA05FC44EA0C04203556EA9A
:10047000044C4FEA144418BF641C4FF000084FF0BE
:100480000009904271EB030C39D3002919BFB1FA6E
:1004900081F701FA07F6B0FA80F700FA07F6C7F11C
:1004A00020071EBF20FA07FC46EA0C062037B6FBE1
:1004B000F4FCA7EB0507103F07F01F0BCBF120065C
:1004C0000CFA0BFB2CFA06F644BFB3460026202F8D
:1004D000A4BF5E464FF0000B5BEA060C08BF4FF06E
:1004E000010B19EB0B09ABFB027C48EB0608C01BA8
:1004F00006FB02CC0BFB03CC71EB0C01C1E70B46F6
:10050000024641464846BDE8F08B13B54FF0000067
:100510004FF00001AFF30080BDE81C4070470000C1
:100520002DE9F0410646002410687529314616A5CC
:1005300010D0AFF30080002802DA404213A507E094
:1005400031688A0701D512A502E0490704D511A533
:10055000012401E0AFF3008000210A2206F1240704
:1005600009E0B0FBF2FCB0FBF2F302FB1C00303000
:1005700078541846491C0028F3D123462A463046B1
:10058000BDE8F04100F0A4B8000000002D0000001C
:100590002B000000200000002DE9F05F8946044692
:1005A0004FF0000ADFF824B1FB44C0F820A0204639
:1005B000E168884700287DD0252806D0D4E90121AC
:1005C0009047206A401C2062F1E700255F462046E4
:1005D000E16888472028064607DB312E05D2B81986
:1005E00010F8200C08B10543F1E7A80701D525F064
:1005F0000405C4F81CA00027C4F818A02A2E09D0AE
:10060000304602F004FF38B304EB8708303EC8F8E8
:10061000186019E059F8041B204604EB8702916129
:10062000E1688847012F064618D1E069002820DAE2
:1006300025F020051DE0D8F8180000EB800006EB3F
:1006400040003038C8F818002046E1688847064660
:1006500002F0DDFE0028EED1012F0AD02E2E08D1A7
:100660002046E16888477F1C0646022F45F020059A
:10067000C4DBA069002803DA404245F00105A0610F
:10068000E80701D025F01005A6B1A6F14100192810
:1006900002D8203645F400654A463146204625609A
:1006A0004D46FFF76DFD60B1012807D0ED1D25F027
:1006B000070000E007E000F1080978E705F1040908
:1006C00075E730467AE7206ABDE8F09FB05C00002D
:1006D0002DE9F0470D4699469246044600F124085C
:1006E0000168880604D5E06921F01001216000E06E
:1006F0000120A84201DD471B00E00027A1697A190B
:1007000002EB0900081AA0612078C00602D4204636
:10071000FFF796FD002608E0D4E901211AF806004B
:100720009047206A401C761C20624E45F4DB2078FE
:10073000C0060AD52046FFF783FD06E0D4E9012173
:1007400030209047206A401C2062381EA7F1010724
:10075000F4DC07E0D4E9012118F805009047206A8D
:10076000401C2062281EA5F10105F3DC2046FFF79E
:100770007DFD2078000602D50220BDE8F08701202B
:10078000FBE7000001694A1C02610878704700B568
:100790008FB0CDE901310021059105497944CDE9BA
:1007A000031011466846FFF7F7FE0FB000BD0000CA
:1007B000E5FFFFFF0A6802F8010B0A6070470000BE
:1007C00001491820ABBEFEE7260002007546FFF780
:1007D0001FFDAE4605006946534620F007008546DA
:1007E00018B020B5FFF704FDBDE820404FF000062B
:1007F0004FF000074FF000084FF0000B21F0070109
:10080000AC46ACE8C009ACE8C009ACE8C009ACE84B
:10081000C0098D467047000010B500F0CBFD4FF4C5
:10082000784001F06FF900210FA2084600F056FE53
:100830001F2001F067F912A21821002000F04EFEDF
:1008400013A24821002000F049FE032002F022FC00
:1008500014A27821002000F041FED821BDE810400C
:1008600014A2002000F03ABE4144435468726573FC
:10087000686F6C642053657474696E673A00000099
:1008800050726573733A2055702C20446F776E0058
:1008900020202020202020546F2041646A7573742A
:1008A00000000000414443205468726573686F6C17
:1008B000643A2000507265737320454E54455220AF
:1008C00052657475726E0000054808B5016B0091A1
:1008D0004068C0F30B11034841800121017008BD3D
:1008E00000400340C80000100C4808B550F8C41F71
:1008F00041F41041016000200223012219210090DF
:1009000001F084FC0748064901608115C160880335
:100910004FF0E021C1F80001002008BD00C00F40E9
:10092000040420000040034010B500240A4B0428B2
:100930000FD00A4A0828516806D0102803D109B1FF
:10094000491E51609C6110BDB1F5806FFAD2491CFF
:10095000F7E75C64F6E700000000001040010010BB
:1009600070B50B4C01256564FFF756FF07E000BF2B
:1009700000F0DCF801F024FBA069FFF7D5FF606C04
:100980000128F5D02570BDE8704001F077B900006E
:100990000000001001218140044800BF50E8002FF2
:1009A0008A4340E80023002BF8D170470C01001067
:1009B0002DE9F0470024354EDFF8D4900127306848
:1009C00007FA04F528425CD03248716800EB441005
:1009D000294244D0B56004EB840309EB83054A4601
:1009E000D5E9021C8C4533D0A1EB0C01B1F5805F39
:1009F00001D340F6FF718C44C5F80CC0D0F80CC090
:100A00005FEA4C1C0ED552F823C0C0F800C052F863
:100A100023C0D0F80C80C8F3814801FA08F8C44418
:100A200049F823C0C268120109D56A6842606B6840
:100A3000C268C2F3415201FA02F21A446A60C26803
:100A400061F30B02C260016941F00101016118E02C
:100A5000E0B2FFF79FFF296999B1012010E0F1682A
:100A600029420ED000210161C160E0B2FFF792FF80
:100A7000356104EB840109EB8100016909B10220B1
:100A80008847641C082C9AD3BDE8F08700400050CA
:100A9000B00F001000410050027812B1521E0270D7
:100AA000704701707047000010B51B48016841F0A5
:100AB0008071016081690029FCDA8069174CC0F3FC
:100AC0000B1217A118482260FFF7A6FB164A6021F7
:100AD000B02000F003FD12A113486268FFF79CFBF1
:100AE000114A7821E02000F0F9FC0DA10E48A2681F
:100AF000FFF792FB0C4A9021E02000F0EFFC627BB4
:100B000007A10948FFF788FBA821BDE81040064A65
:100B1000E02000F0E3BC0000004003404001001072
:100B200025303464000000004C00001008B5064871
:100B3000064942686846FFF76FFB6A467821E02065
:100B400000F0CCFC08BD0000400100107011000056
:100B500010B52448016841F0807101608169002965
:100B6000FCDA8069204CC0F30B1220A1A4F10B0029
:100B70002260FFF751FB2068642808D81DA2A82135
:100B8000002000F0ABFC02F027FD1C210CE0A0F1DE
:100B90006501B1F5617F09D21BA2A821002000F0F8
:100BA0009DFC02F019FD1D21012016E0A0F2E930A4
:100BB000B0F5FA6F08D219A2A821002000F08EFC2F
:100BC00002F00AFD1F21EFE719A2A821002000F082
:100BD00085FC02F001FD02210846BDE8104002F04C
:100BE00003BD0000004003405C0000102530346469
:100BF00000000000436F6D706C6574656C79206453
:100C000061726B2E000000004C6967687420697384
:100C1000207765616B2E2020000000004C6967681A
:100C200074206973206E6F726D616C2E000000007D
:100C30004C69676874206973206272696768742EF2
:100C40000000000010B52248016841F08071016089
:100C500081690029FCDA80691E4CC0F30B121EA1C9
:100C6000A4F116002260FFF7D7FA2068B0F5FA6FFA
:100C700014D31BA29021002000F030FC1CA2A8215C
:100C8000002000F02BFC0621022002F099FC1DA29E
:100C9000C021002000F022FC062113E01F490020A3
:100CA0001FA20873C02100F019FC0DA290210020A2
:100CB00000F014FC20A2A821002000F00FFC02F09C
:100CC0008BFC0521BDE81040022002F08DBC000025
:100CD000004003406C000010253034640000000028
:100CE000536F696C206D6F697374757265000000D5
:100CF00069732076657279206472792E2020202015
:100D00002020000050756D702069732072756E6E22
:100D1000696E67206E6F772E0000000040010010A2
:100D200050756D70206973206E6F742072756E6ED1
:100D3000696E672E0000000069732073617475721C
:100D4000617465642E00000070B5032002F0A2F902
:100D500014480425C11C02780B78134E134C9A4298
:100D60000AD142784B789A4206D1807889788842B5
:100D700002D10120207301E0207B50B10CA2C021E0
:100D8000002000F0ABFBB565607BBDE8704002F071
:100D900063BB0DA2C021002000F0A0FB207A60738D
:100DA000F56570BD0200001000C009204001001070
:100DB00050756D702069732072756E6E696E672054
:100DC0006E6F772E0000000050756D7020697320E3
:100DD0006E6F742072756E6E696E672E0000000073
:100DE00010B500F0E7FA4FF4784000F08BFE0021D8
:100DF0001AA2084600F072FB1F2000F083FE1CA21E
:100E00001821002000F06AFB1FA23021002000F012
:100E100065FB22A24821002000F060FB032002F0C5
:100E200039F923A27821002000F058FB24A2A82140
:100E3000802000F053FB23A2A821C02000F04EFB2D
:100E400021A2A8214FF4807000F048FBD821BDE812
:100E500010401EA2002000F041BB000020202043D3
:100E60006C6F636B2053657474696E673A000000A1
:100E700050726573733A2055702C20446F776E2042
:100E80002020202000000000202020202020204CB6
:100E90006566742C20526967687400002020202049
:100EA000202020546F2041646A7573740000000094
:100EB00043757272656E742054696D653A20000046
:100EC000683A00006D3A00007300000050726573CC
:100ED0007320454E5445522052657475726E000061
:100EE00070B52548016841F0807101608169002971
:100EF000FCDA80696421C0F30B10B0FBF1F3B0FBA6
:100F0000F1F21E4C01FB1303A4F164052060AB62F7
:100F10001BA104F110006A61FFF77EF904F11002D1
:100F20007821502000F0DAFA2068B0F57A7F08D8EE
:100F300016A2A821002000F0D1FA02F04DFB0321F7
:100F400015E0A0F2E930B0F5FA6F08D213A2A8219B
:100F5000002000F0C3FA02F03FFB042107E013A2D7
:100F6000A821002000F0BAFA02F036FB0521BDE806
:100F70007040022002F038BB0040034064000010C3
:100F8000253032642E2530326400000054656D70C7
:100F900020697320636F6C642E20200054656D708F
:100FA000206973206E6F726D616C2E0054656D70D8
:100FB00020697320686F742E2020200038B51C4CE7
:100FC000206980B35FF0000002F064F8184D19A1A9
:100FD000AD1C68462A78FFF71FF96A46A8216020F1
:100FE00000F07CFA2069012800D0002002F052F8BD
:100FF0006A7810A16846FFF70FF96A46A821A02079
:1010000000F06CFA2069022810D0002002F042F8AB
:10101000AA7808A16846FFF7FFF86A46A821E020F1
:1010200000F05CFA38BDFFE70120CDE70120EDE7D5
:1010300000000010253032640000000010B500F000
:10104000B9F9134800F058FD4FF47844204600F0F9
:1010500059FD00210FA2084600F040FA47F60F00A4
:1010600000F050FD0FA24821002000F037FA0320C5
:1010700002F010F81F2000F045FD0FA2D82100203B
:1010800000F02CFA2046BDE8104000F03BBD000007
:10109000686100004C696768742053656E736F72F5
:1010A000000000004C6967687420496E74656E73B7
:1010B0006974793A20000000507265737320454EC0
:1010C0005445522052657475726E000010B500F0E0
:1010D00071F9114800F010FD4FF4784000F012FD56
:1010E00000210EA2084600F0F9F947F60F0000F0C3
:1010F00009FD0EA24821002000F0F0F9032001F0C4
:10110000C9FF1F2000F0FEFCD821BDE810400BA253
:10111000002000F0E3B90000686100004D6F6973C2
:10112000747572652053656E736F7200536F696CCE
:10113000204D6F6973747572653A20005072657343
:101140007320454E5445522052657475726E0000EE
:1011500008B5064806A182686846FFF75DF86A464A
:101160007821C02000F0BAF908BD0000400100104D
:1011700025303264000000000EB50549684602F0D3
:10118000B1F86A464821A02000F0A8F90EBD000081
:101190000500001010B51F2000F0B4FC14A230218F
:1011A000002000F09BF914A24821002000F096F9DD
:1011B00014A26021002000F091F915A278210020EE
:1011C00000F08CF916A29021002000F087F918A2F7
:1011D000A821002000F082F919A2D821002000F0F7
:1011E0007DF9BDE810404FF4784000F08BBC000062
:1011F000436C6F636B3A200050756D705F54696D7E
:10120000653A00004144432056616C75653A000020
:10121000414443205468726573686F6C643A0000FF
:1012200050756D705F4475726174696F6E3A00003D
:1012300050756D705F52656D61696E3A20000000F7
:10124000507265737320454E544552205265747533
:10125000726E000010B5164800F04EFC00F0AAF8BF
:101260004FF4784000F04EFC002112A2084600F036
:1012700035F947F60F0000F045FC13A24821002085
:1012800000F02CF94FF4787000F03CFC12A27821A9
:10129000902000F023F9032001F0FCFE1F2000F055
:1012A00031FCD821BDE810400CA2002000F016B996
:1012B0006861000054656D706572617475726520B7
:1012C00053656E736F72000054656D706572617462
:1012D0007572653A20000000202A43005072657341
:1012E0007320454E5445522052657475726E00004D
:1012F0000EB50549684601F0F5FF6A463021A02089
:1013000000F0ECF80EBD00000200001010B500F077
:1013100051F84FF4784000F0F5FB00210FA2084689
:1013200000F0DCF81F2000F0EDFB11A218210020D6
:1013300000F0D4F812A24821002000F0CFF80320DA
:1013400001F0A8FE13A27821002000F0C7F8D821F0
:10135000BDE8104012A2002000F0C0B850756D70BA
:10136000204475726174696F6E205365743A000091
:1013700050726573733A2055702C20446F776E005D
:1013800020202020202020546F2041646A7573742F
:10139000000000004475726174696F6E3A200000AD
:1013A000507265737320454E5445522052657475D2
:1013B000726E000070B50021F0234FF4A072084651
:1013C00000F0A6FB222003F0CFFB03F0FDFB074D4E
:1013D00000244FF49636A88803F0E4FB641CB44262
:1013E000F9D303F0FFFB002070BD0000CC0000101B
:1013F0002DE9F0411F4CA36893B15D68DF68551B70
:101400001A885B88D61DF608754303FB057600F045
:101410007FFB222003F0A8FB03F0D6FB002720E08F
:101420004FF0FF30BDE8F081002514E0307805F082
:101430000701C840C00701D0608800E0A08803F021
:10144000B1FBE843400705D1A0680088401EA842D0
:1014500000D0761C6D1CA0680088A842E6D8761CD7
:101460007F1CA0684088B842DED803F0BBFB002098
:10147000D8E70000CC00001070B51446012300F03E
:1014800047FB222003F070FB03F09EFB054D02E0BA
:10149000688803F087FB641EFAD203F0A3FB0020E8
:1014A00070BD0000CC0000102DE9F0411C4616462E
:1014B0000D460746FFF7E0FF291932463846FFF789
:1014C000DBFF22462946384600F020F8B8192246AC
:1014D000294600F01BF80020BDE8F0812DE9F0411D
:1014E00014460F460546084E07E039462846641C58
:1014F000FFF77EFFB068008805442278002AF4D107
:101500000020BDE8F0810000CC00001070B514464A
:101510001346012200F0FCFA222003F025FB03F021
:1015200053FB054D02E0688803F03CFB641EFAD2D1
:1015300003F058FB002070BDCC000010F8B501206E
:1015400000F0ECFC00263346324606213046009679
:1015500000F05CFE01220621002000F0EDFC0122DB
:101560000621002000F0CEFC02F0ECF9FE4D04460E
:101570000020A96888472969022088476A6AFB49D0
:10158000FB489047DCB9002003F0EEFA01216A6ABB
:1015900013209047732003F021F9002003F01EF977
:1015A000002003F01BF94FF6FF7101EA0024002030
:1015B00003F014F9044300216A6A13209047ED48B0
:1015C000472C7DD006704FF48071012003F012FB90
:1015D0004FF4E061022003F00DFB0021042003F032
:1015E00009FB40F20721082003F004FB0021092039
:1015F00003F000FB00210A2003F0FCFA00210C207C
:1016000003F0F8FA00210D2003F0F4FA00210F2076
:1016100003F0F0FA0021102003F0ECFA0021112071
:1016200003F0E8FA0021122003F0E4FA002113206D
:1016300003F0E0FAC82001F051FF41F2B021102080
:1016400003F0D8FA0721112003F0D4FA322001F078
:1016500045FF40F2BD11122003F0CCFA322001F018
:101660003DFF4FF4A051132003F0C4FA0E212920AE
:1016700003F0C0FA322001F031FF0021202003F0F6
:10168000B9FA0021212003F0B5FAA4F514509338DB
:1016900040F2076540F207767ED0A0F67560B0F59F
:1016A000005F7AD00621302003F0A4FA40F2011145
:1016B000312003F09FFA0321322003F09BFA00E06F
:1016C0001DE04FF48371352003F094FA40F60231A7
:1016D000362003F08FFA40F20231372003F08AFA05
:1016E0003146382003F086FA0721392003F082FAC8
:1016F000E91F3C2003F07EFA40F20B2185E1012135
:1017000001700021EA2003F075FA2021EB2003F09C
:1017100071FA0C21EC2003F06DFAC721ED2003F0E3
:1017200069FA3821E82003F065FA1021E92003F076
:1017300061FA0121F12003F05DFA1021F22003F09B
:1017400059FA0121402003F055FA0021412003F00D
:1017500051FA0021422003F04DFA1021432003F0FA
:1017600049FA0E21442003F045FA2421452003F0D4
:1017700041FA0421462003F03DFA5021472003F0AE
:1017800039FA0221482003F035FA1321492003F0E9
:1017900031FA19214A2001E00FE1B7E003F02AFAFB
:1017A00019214B2003F026FA16214C2003F022FACF
:1017B0001B21502003F01EFA3121512003F01AFAA8
:1017C0002F21522003F016FA3F21532003F012FA82
:1017D0003F21542003F00EFA3E21552003F00AFA6F
:1017E0002F21562003F006FA7B21572003F002FA3E
:1017F0000921582003F0FEF90621592003F0FAF9D7
:1018000006215A2003F0F6F90C215B2003F0F2F9CF
:101810001D215C2003F0EEF9CC215D2003F0EAF9F4
:101820001B21084603F0E6F901211A2003F0E2F932
:101830002F21242003F0DEF95721252003F0DAF9C7
:101840008821232003F0D6F93621182003F0D2F99D
:101850000121192003F0CEF90021012003F0CAF97B
:1018600088211F2003F0C6F9C82001F037FE82212D
:101870001F2003F0BFF9322001F030FE92211F201B
:1018800003F0B8F9322001F029FED2211F2003F025
:10189000B1F9322001F022FE5521172003F0AAF9F8
:1018A0000021084603F0A6F911212F2003F0A2F928
:1018B0000021312003F09EF90021322003F09AF933
:1018C0003821282003F096F9C82001F007FE3C21BA
:1018D000282003F08FF9A821162003F08BF90021AE
:1018E0000E2003F087F900210F2003F083F9012176
:1018F000102003F07FF94021112003F07BF9002133
:10190000122003F077F900211320E5E040F60D31B5
:10191000302003F06FF941F62311312003F06AF90A
:1019200041F62641322003F065F942F21C61332072
:1019300003F060F942F21941342003F05BF940F6FC
:101940000B51352003F056F941F20601362003F021
:1019500051F94FF4C261372003F04CF940F206719F
:10196000382003F047F907E03062000020BCBE00D9
:1019700001830800CC0000104FF44171392003F0BE
:1019800039F940F605613A2003F034F940F6016177
:101990003B2003F02FF94FF487713C2003F02AF924
:1019A00040F20E513D2003F025F940F203413E2064
:1019B00003F020F929463F2028E00021302003F0E1
:1019C00019F92946312003F015F940F2053132208A
:1019D00003F010F90021352003F00CF941F2046105
:1019E000362003F007F94FF40171372003F002F9B4
:1019F0000121382003F0FEF83146392003F0FAF8CF
:101A000000213C2003F0F6F80F213D2003F0F2F80E
:101A10000021502003F0EEF8EF21512003F0EAF806
:101A20000021522003F0E6F840F23F11532003F06A
:101A3000E1F8A4F29354B4F5005407D0A4F6756409
:101A4000B4F5005F02D04FF4274101E04FF41C5180
:101A5000602003F0CFF80121612003F0CBF80021D2
:101A60006A2003F0C7F80021802003F0C3F80021AA
:101A7000812003F0BFF80021822003F0BBF8002191
:101A8000832003F0B7F80021842003F0B3F800218D
:101A9000852003F0AFF81021902003F0ABF800216F
:101AA000922003F0A7F80321932003F0A3F84FF44A
:101AB0008871952003F09EF80021972003F09AF892
:101AC0000021982003F096F841F23801032003F03A
:101AD00091F840F23711072003F08CF801221C2105
:101AE000042000F00FFA0020F8BD000001498880B2
:101AF00000207047CC00001001498860002070472A
:101B0000CC0000100149488000207047CC00001034
:101B10002DE9F041054687182148CE18761E007839
:101B20000C467F1E10B3C5F30F21022003F062F8AC
:101B3000E9B2032003F05EF8C7F30F21042003F09D
:101B400059F8F9B2052003F055F8C4F30F21062027
:101B500003F050F8E1B2072003F04CF8C6F30F2170
:101B6000082003F047F8F1B2092015E0A1B2502097
:101B700003F040F8B1B2512003F03CF8A9B2522072
:101B800003F038F8B9B2532003F034F8A1B22020A2
:101B900003F030F8A9B22120BDE8F04103F02AB8E3
:101BA000CC0000102DE9F047334C627800211E264E
:101BB0004FF499704FF6FF7AA2B1814604F1B00854
:101BC0006162606A0A2700EB800106EBC105A1682B
:101BD000884238D11E234A46A91E0820FFF764FC1C
:101BE0001F203AE0DFF89080814608F188082162E2
:101BF000206A0A2700EB800106EBC105A168884234
:101C000007D11E234A46A91E0820FFF74DFC1F20BE
:101C100009E05046FFF776FF1E234A46A91E08201A
:101C2000FFF742FC0020FFF76DFF216A384658F8A5
:101C300031202946FFF752FC206A401C206205280B
:101C4000D6DBBDE8F0875046FFF75CFF1E234A460F
:101C5000A91E0820FFF728FC0020FFF753FF616A48
:101C6000384658F831202946FFF738FC606A401C96
:101C700060620328A5DBE4E70000001010B54FF612
:101C8000FF70FFF733FF4FF47840FFF73BFFFFF79C
:101C900091FB0021BDE8104001A20846FFF71EBCE1
:101CA0004175746F2050756D70204D656E75000024
:101CB00010B54FF6FF70FFF719FF4FF47840FFF7AC
:101CC00021FFFFF777FB0021BDE8104001A2084685
:101CD000FFF704BC53656E736F72204D656E75001F
:101CE0002DE9F05F1C46DDE90B9A15460E460746C6
:101CF0004FF0FF38082848D201F0F0F9401C44D0DA
:101D0000DFF898B007EB870825480BEB880200EB5B
:101D100047104FF0000CC2F810A0C0F810C0C0F877
:101D20000CC020494FF0010A0AFA07F38B600B61DF
:101D3000C0F808C0C1F830A00B6BDB07FCD0946082
:101D4000B4F5805F01D340F6FF740A99066064F32E
:101D50000B0145605FEA411C04D5C1F3814C04FAD4
:101D60000CFC66445FEA011C04D5C1F3415C04FA33
:101D70000CFC65444BF828605560D460C160C0F825
:101D800010905FEAC97003D005E04046BDE8F09FBF
:101D90003846FEF7FFFD0020F8E70000B00F001006
:101DA000004100500040005010B50446082802D3FE
:101DB0004FF0FF3010BDFEF7EDFD054800EB44107D
:101DC000D0F8101121F00101C0F81011002010BD51
:101DD00000400050082801D300207047074A00EB5C
:101DE000800102EB8101064AC96802EB4010D0F87D
:101DF0000C01C0F30B00081A70470000B00F001070
:101E000000400050184910B54868401C486001283F
:101E100001D9002010BD154850F8C41F41F00051F1
:101E200001600020124C134A014600BF04EB40132E
:101E3000C3F8101100EB8003401C42F8231002EBA2
:101E40008303082859609960D960EFD3FF20A06010
:101E500020611A2000F0CFF94FF0E0214FF08060B0
:101E6000C1F80001D5E700000C01001000C00F40D0
:101E700000400050B00F0010A0F10802082A01D263
:101E8000012902D94FF0FF30704701220838824003
:101E900005480029D0F8C41101D0114300E0914356
:101EA000C0F8C4110020704700C00F400D4910B5A4
:101EB000486820B1401E486004D0002010BD4FF09B
:101EC000FF3010BD084850F8C41F21F000510160D8
:101ED0004FF0E0214FF08060C1F880011A2000F03F
:101EE0008AF9EAE70C01001000C00F40044A02EB37
:101EF0004010406901228A40104000D00120704704
:101F000000C0092001238B40034901EB40100AB1B6
:101F100083617047C361704700C0092005490028EC
:101F200051F8C40F02D040F4004001E020F400401A
:101F30000860704700C00F4010B5064C012304EB49
:101F400040108B4001680AB1194300E099430160D9
:101F500010BD000000C00920826A126890F82000BD
:101F6000C24012F0030006D0012806D0022806D095
:101F7000032807D105E0042104E0012102E0022149
:101F800000E0082102480068B0FBF1F07047000053
:101F90001401001002788A4202D3002101707047B8
:101FA000521C0270704700000448016A41F0304141
:101FB0000162016C41F07C010164704700C009209E
:101FC0001548416B0A02154904D408228A61426B04
:101FD0001202FCD5426B920104D410228A61426B3A
:101FE0009201FCD5426BD20204D404228A61426B76
:101FF000D202FCD5426B520104D401228A61426BA9
:102000005201FCD5426BD20104D402228A61416B99
:10201000C901FCD57047000000C009200000001075
:10202000F8B50120FFF77AFF00240C4D274600BFCA
:1020300005EB440600970023717815F814001A4642
:1020400000F0E4F8717815F814000022FFF774FF2F
:10205000641C052CECD30020F8BD00007861000062
:10206000F8B50120FFF75AFF00240F4D274600BFA7
:1020700005EB44060097717815F81400032300223D
:1020800000F0C4F8717815F814000122FFF754FF2E
:10209000717815F814000022FFF734FF641C082C37
:1020A000E6D30020F8BD00008261000070B5124C3C
:1020B00001252563FEF7C2FF4FF4787610E000BFDC
:1020C000FEF746FDFFF77CFFA069042810D03046DC
:1020D000FFF718FD084A782151325020FFF7FEF92A
:1020E000206B0128ECD02570BDE87040FFF7C6BD1D
:1020F00000202063A061F6E70000001070B5002505
:102100000126224C08280FD0102824D0042819D1E9
:102110006078A56198B304F1B000A16800EBC1003C
:102120004068BDE87040004760780028A06804D08F
:10213000002808DDA068401E23E00028FADCA56026
:102140002670A56170BDFFF735F9FFF797FD0520F3
:10215000A060657070BD60780028A06804D0022877
:102160000EDAA068401C0CE00428FADBFFF722F925
:10217000FFF79EFD4FF0FF30A060667070BD02E07B
:102180000220A060DCE701488830C6E700000010AC
:1021900070B5124C0125A563FEF798FF4FF47876D1
:1021A00010E000BFFEF74EFDFFF70AFFA06904280C
:1021B00010D03046FFF7A6FC084A7821563250204E
:1021C000FFF78CF9A06B0128ECD02570BDE87040BA
:1021D000FFF754BD0020A063A061F6E700000010E7
:1021E00000F01F02012191404009800000F1E02031
:1021F000C0F88012704700F01F0201219140400991
:10220000800000F1E020C0F880127047F0B5002493
:10221000059E0D46102903D3A1F11004E5B2012457
:10222000C70007EB8407124C3C4427684FEA450C73
:10223000032505FA0CF5AF432760276802FA0CF274
:1022400017432760226CAA432264226C03FA0CF322
:102250001A43226401228A400549012E01EB8000C5
:10226000816E03D0914381660020F0BD1143FAE7EF
:1022700000C0024038B51C4CE06B80B35FF000003A
:1022800000F008FF184D19A16D1D68462A78FDF76A
:10229000C3FF6A46A8216020FFF720F9E06B012800
:1022A00000D0002000F0F6FE6A7810A16846FDF725
:1022B000B3FF6A46A821A020FFF710F9E06B0228BF
:1022C00010D0002000F0E6FEAA7808A16846FDF7CD
:1022D000A3FF6A46A821E020FFF700F938BDFFE719
:1022E0000120CDE70120EDE7000000102530326429
:1022F0000000000070B51F4C00250428E16B36D0AB
:1023000009DC01282FD0022804D1022901DA491C56
:10231000E163A56170BD174A521D082809D0102835
:10232000F8D1B9B1012919D00229F2D13B21901C71
:1023300016E031B1012908D00229EAD13B21901CD5
:1023400005E00C481721401D01E03B21501CFFF720
:1023500021FEDEE707481721401D01E03B21501C0C
:10236000FEF79AFBD5E70029D3DD491ED0E7E561EA
:10237000CFE700000000001070B50C4C01250020D4
:10238000E561E06300F014F807E000BFFFF772FFBB
:10239000FFF716FEA069FFF7ADFFE0690128F5D051
:1023A0002570BDE87040FFF769BC00000000001018
:1023B00010B5FEF7FFFF4FF47840FFF7A3FB0021B5
:1023C0001AA20846FFF78AF81F20FFF79BFB1CA202
:1023D00018210020FFF782F81EA230210020FFF70D
:1023E0007DF821A248210020FFF778F8032000F0B3
:1023F00051FE22A278210020FFF770F822A2A82126
:102400008020FFF76BF821A2A821C020FFF766F813
:102410001FA2A8214FF48070FFF760F8D821BDE813
:1024200010401CA20020FFF759B8000050756D70D5
:102430002054696D652053657474696E673A0000B5
:1024400050726573733A2055702C446F776E20205C
:1024500020202000202020202020204C6566742091
:102460002C205269676874002020202020202054EE
:102470006F2041646A7573740000000050756D70C0
:102480002054696D653A2000683A00006D3A0000FA
:1024900073000000507265737320454E54455220FE
:1024A00052657475726E000010B50024094B042843
:1024B0000ED0094A0828916806D0102803D109B126
:1024C000491E91609C6110BDFA29FBD2491CF8E7B6
:1024D0001C64F7E7000000104001001070B50B4CC1
:1024E00001252564FEF712FF07E000BFFEF730FE6E
:1024F000FFF766FDA069FFF7D7FF206C0128F5D034
:102500002570BDE87040FFF7B9BB00000000001067
:10251000014A00F069B80000E8610000014900F0DC
:1025200055BA0000E8610000014900F05EBA000001
:10253000E86100000848016CC979490701D400200E
:10254000704790F8341019B190F83500FFF742BC8D
:10255000406CC06870470000E861000006490A6CE2
:10256000127962F300000A6C096C5279897962F37E
:10257000410061F382007047E8610000014800F00B
:102580003ABA0000E8610000014900F09BBA00007F
:10259000E8610000014900F0DFBA0000E8610000D6
:1025A000014A00F07FBB0000E8610000014A00F032
:1025B0000FBC0000E8610000014B00F09FBC000070
:1025C000E8610000014800F033BD0000E861000050
:1025D0000148406870470000E06100000148006861
:1025E00070470000E06100002DE9F84F0646106CCE
:1025F0000F464FF00009C17914464FF0020ACB464E
:1026000089077DD5F1B200250091142904D0017904
:1026100031B3A81EBDE8F88F2068416821F002019F
:10262000416020684561206C007968B194F82C0005
:1026300018B194F82D00FFF7B7FB94F8340018B1E7
:1026400094F83500FFF7B0FB1C21606CFDF728FE05
:10265000206C05712068416841F002014160B1E1E0
:10266000009904297ED007DC89B1012921D00229F3
:1026700053D0032908D175E0102939D011296ED023
:1026800012296DD013296CD06FF00300C2E72068C7
:10269000416821F00201416020684561206C816839
:1026A00021F0FF018160106CC17921F00401C1713A
:1026B00088E12068416821F002014160206845619D
:1026C0002068416821F004014160216C886820F095
:1026D000FF008860216C40F001008860206CC179A7
:1026E00041F00401C1712068416841F0020141607C
:1026F000002F05D01046FFF72FFC4FEA001C00E02A
:1027000085E03B0102210020421C4A43BCFBF2F25F
:1027100093422AD18A4681463AE02068416821F0F6
:10272000020141602068416841F004014160216874
:102730004FF001004861216C886820F0FF0088603C
:10274000216C40F002008860206CC17941F00401E6
:10275000C1712068416841F0020141602CE033E022
:1027600041E043E06FF0060054E708D9A3EB0B0704
:10277000A3EB0208474502D993468A468146401C8E
:10278000FF28C1D9891CFF29BDD3BBF1000F3ED062
:1027900021680AF0FF0008612068016821F47F4188
:1027A0000160206801684FF6FF7303EA09221143B4
:1027B00001600098102818D0216C6FF00A07886813
:1027C000C2B2012A28D062E01046FFF7C5FB0146DD
:1027D000206802690068D2B2C0F30720401C42435F
:1027E000B1FBF2F016E7506C0783EBE080687649A6
:1027F00008406FF40021C84209D1506838B14178CF
:1028000000783FB15FF00002FFF77CFBDAE04FF0A9
:10281000FF30FFE60122F7E716F4C01209D0B2F547
:10282000002F17D0B2F5801F37D0B2F5C01F2ED1C0
:102830000DE0606830B100954178002300781A46B9
:10284000FFF7E4FC206C816821F4C0111EE020F445
:10285000C01057E020F4C01088606068A8B30095ED
:102860004178007803230022FFF7D0FC6068012242
:1028700041780078FFF760FB6068012241780078BA
:10288000FFF740FB206C816841F400218160216CDE
:102890008868C2B2022A11D024E020F4C0108860F7
:1028A000606890B100954178227D00780323FFF79E
:1028B000ADFC206C816841F48011E7E716F400124A
:1028C00004D0B2F5001F1ED11AE01CE020F4001065
:1028D00088606068B8B100954178227D0078032354
:1028E000FFF794FC06F4E060B0F5407F4FD00CDCBD
:1028F000A0B1B0F5807F1BD0B0F5007F0BD137E0E1
:1029000020F400108860384684E6B0F5806F48D027
:10291000B0F5A06F4CD06FF007007BE6206801682F
:1029200021F0300101602068016821F0C0010DE054
:102930002068016821F0300101602068016821F001
:10294000400101602068016841F080010160C6F328
:102950000530011F0C2932D821680A68401E22F078
:102960000F0202430A6070032CD56FF0090051E694
:102970002068016821F0300101602068016841F0A1
:10298000400101602068016821F08001DEE72068D5
:10299000016821F0300101602068016841F0C00148
:1029A000D4E72068016821F0300141F01001CDE743
:1029B0002068016821F0300141F02001C6E76FF086
:1029C000080027E6002025E6FF00180001280BD1AB
:1029D000486C0268C2600A6C00201071086C0168C3
:1029E000002901D0012008477047012802D1486C16
:1029F00001680161704770B504460068C56905F05B
:102A0000030101622068C06880071DD5616C0A69F6
:102A10000868904218D98A687AB1501C8860117889
:102A20002268126802F00F02072A07D9626C431C61
:102A30009360007841EA002100E0098B2068816002
:102A4000606C0169491C01612068C16849072BD588
:102A50008068616C82B2CB680868984224D94B6860
:102A60006BB1581C48601A702168096801F00F01A9
:102A7000072904D9616C130A421C4A600370616C17
:102A8000C868401CC860616C096888420CD1206825
:102A9000416921F00F014161216C00200871206C17
:102AA000016809B101208847E8070AD0216C01209C
:102AB0004871206C0168002903D0BDE870400220F5
:102AC000084770BD38B50C46096CCA79D20701D0E9
:102AD000002038BD0860206C00251C210571206C89
:102AE0004571206C8571606CFDF7DAFB0095A0687C
:102AF000627D002341780078FFF788FBE06830B101
:102B000000954178A27D00780023FFF77FFB2069C4
:102B100030B100954178E27D00780023FFF776FB25
:102B200094F82C0010B994F8340088B1FFF76AF9D2
:102B300094F82C0020B194F82E000021FFF79CF9A6
:102B400094F8340020B194F836000021FFF794F98E
:102B5000216C0120C871BBE72DE9F0410025012758
:102B60000C46032620B1022848D0281FBDE8F0817A
:102B700094F93C0000F01F018F404009800000F1F3
:102B8000E020C0F88071E0690168A269114301602A
:102B9000206C007968B194F82C0018B194F82D00DD
:102BA000FFF702F994F8340018B194F83500FFF7F4
:102BB000FBF8206845612068456220680560206850
:102BC00045602068056120680662E0690168A269C5
:102BD0009143016094F93C00FFF702FB206C1C213B
:102BE0000571206C4571206C8571606CFDF758FB98
:102BF000206CC17921F00201C17150E0206CC079D4
:102C0000C10727D080074AD4E0690168A26911434F
:102C10000160A06A016894F8202006FA02F291434C
:102C2000016094F82010606A8840A16A0A68104325
:102C300008602068456120680662206C0571206C80
:102C40004571206C8571206CC17941F00201C17120
:102C5000206803E04FF0FF3088E78168C1684907CA
:102C6000FBD494F82C1019B1416A41F00201416281
:102C700094F8340020B12068416A41F001014162BA
:102C800014F93C0FFFF7ACFA94F9000000F01F01B3
:102C90008F404009800000F1E020C0F80071002062
:102CA00064E70000FEB514460D4602000AD04DB19F
:102CB000206C4FF0FF36C17949077FD5017921B1EA
:102CC0007000FEBD6FF00400FEBD01210171216C9A
:102CD00000203E4F4871216C8871616C0B8B7B60CA
:102CE0004A60616C8860616C0D60616CC860616C89
:102CF000086194F82C00E8B394F83400D0B394F849
:102D000036103E2303EA41014DF201030B442168D2
:102D1000A06B0F6807F00F07072F01D9012700E00C
:102D20000027D1F800C0BF040CF00F0CBCF1070F56
:102D300002D94FF0010C01E04FF0000C47EA4C576C
:102D400047F008470097CDE9013094F835002B464D
:102D50000831FEF7C5FF401C30D094F82E004FF428
:102D6000F86202EA80104CF6010210442268216BDE
:102D7000136800E024E003F00F03072B01D90123BF
:102D800000E0002317689B0407F00F07072F01D905
:102D9000012700E0002743EA475343F00043009334
:102DA000CDE90101094994F82D002B46091D08328F
:102DB000FEF796FF401C00E000E004D13046FEBD67
:102DC00021680F2048610020FEBD000004010010B2
:102DD000FEB50D46060014460AD04DB1206C4FF0EA
:102DE000FF37C17949077DD5017921B17800FEBD52
:102DF0006FF00400FEBD01210171216C00204871BB
:102E0000216C8871616C4860616C8E60616C0D60D2
:102E1000616CC860616C086194F82C00F0B394F8A0
:102E20003400D8B394F836103E2202EA41014DF244
:102E300001020A442168A06B0B6803F00F03072B03
:102E400001D9012300E00023D1F800C09B040CF05D
:102E50000F0CBCF1070F02D94FF0010C01E04FF04D
:102E6000000C43EA4C5343F000430093CDE90120AA
:102E700094F835002B46204A0831FEF731FF401CFC
:102E800033D094F82E004FF4F86202EA80104CF62A
:102E9000010210442268216B136800E027E003F070
:102EA0000F03072B01D9012300E00023D2F800C053
:102EB0009B040CF00F0CBCF1070F02D94FF0010C72
:102EC00001E04FF0000C43EA4C5343F004430093FD
:102ED000CDE9010194F82D002B4631460832FEF76A
:102EE000FFFE00E001E0401C04D13846FEBD116841
:102EF0000F2048610020FEBD04010010FEB51546FC
:102F00000A4606001C460BD052B14DB1206C4FF062
:102F1000FF37C179490771D5017921B17800FEBD2C
:102F20006FF00400FEBD01210171216C0020487189
:102F3000216C8871616C4A60616C8E60616C0D609F
:102F4000616CC860616C086194F82C00E8B394F877
:102F50003400D0B394F836103E2303EA41014DF219
:102F600001030B442168A06BD1F800C00CF00F0CDA
:102F7000BCF1070F02D94FF0010C01E04FF0000C3B
:102F8000D1F800E04FEA8C4C0EF00F0EBEF1070FA7
:102F900002D94FF0010E01E04FF0000E4CEA4E5CFA
:102FA0004CF0084CCDF800C0CDE9013094F8350064
:102FB0002B460831FEF794FE401C32D094F82E10B8
:102FC0004FF4F86202EA811100E02CE04CF60102B5
:102FD00011442268206B136803F00F03072B01D9FB
:102FE000012300E00023D2F800C09B040CF00F0C7A
:102FF000BCF1070F03D94FF0010C02E011E04FF0D4
:10300000000C43EA4C5343F004430093CDE9011014
:1030100094F82D002B4631460832FEF761FE401C25
:1030200004D13846FEBD19680F2048610020FEBD5E
:1030300038B504464068002530B10095417800233A
:1030400000781A46FFF7E2F80095A06800231A46B8
:1030500041780078FFF7DAF8E06830B10095417800
:10306000002300781A46FFF7D1F8206930B10095A7
:103070004178002300781A46FFF7C8F894F82C002E
:1030800010B994F8340008B1FEF710FF206CC57138
:10309000002038BD10B54FF6FF7403280CD002286D
:1030A00010D0012814D02046FEF720FD4FF4C06058
:1030B000BDE81040FEF726BD2046FEF717FD41F2A1
:1030C000E210F5E74CF21860FEF710FD2046EFE73E
:1030D0004EF65D70FEF70AFD1F20E9E7094A01215F
:1030E00011FA00F152E8000F014204D0BFF32F8F14
:1030F0004FF0FF307047084342E80003002BF1D146
:10310000002070470C01001070B530482021C0F835
:10311000A011D0F8A011890604D500BFD0F8A011E5
:103120004906FBD50325C0F804510023C0F8A83197
:10313000C0F8AC310124C0F80C412549C0F8841016
:10314000AA22C0F88C205521C0F88C10C0F880400D
:10315000C0F88C20C0F88C10D0F888607601FBD5C0
:10316000C0F88050C0F88C20C0F88C10D0F888606F
:10317000C6F30166032EF9D12326C0F8A460C0F877
:10318000AC20C0F8AC10C0F8A040C0F8AC20C0F82B
:10319000AC1000BFD0F8A8406405FBD5C0F8A05023
:1031A000C0F8AC20C0F8AC10D0F8A810C1F30121D1
:1031B0000329F9D10749C0F8C410C0F8C831016823
:1031C00021F4704141F48041016070BD00C00F40A6
:1031D00063000500DE87280470B5124C0125656385
:1031E000FEF738F84FF4787610E000BFFDF778FE70
:1031F000FEF7E6FEA069042810D03046FEF782FCF8
:10320000084A782174325020FEF768F9606B012873
:10321000ECD02570BDE87040FEF730BD0020606343
:10322000A061F6E70000001070B50C4C01250020ED
:10323000C4E90350FDF7D4FD07E000BFFDF7BEFE73
:10324000FEF7BEFEA06900F00BF8E0680128F5D09B
:103250002570BDE87040FEF711BD000000000010B1
:1032600070B51F4C00250428216936D009DC0128DF
:103270002FD0022804D1022901DA491C2161A5615D
:1032800070BD174A921C082809D01028F8D1B9B18E
:10329000012919D00229F2D13B21901C16E031B14D
:1032A000012908D00229EAD13B21901C05E00C48F5
:1032B0001721801C01E03B21501CFEF76BFEDEE76E
:1032C00007481721801C01E03B21501CFDF7E4FB5F
:1032D000D5E70029D3DD491ED0E7E560CFE7000040
:1032E0000000001008B58A7800924B780A7802A195
:1032F000FCF792FF08BD0000253032643A253032D9
:10330000643A2530326400000A49002002228870A5
:1033100048700870C91C88704A7008700649C82235
:103320004A601E228A6008734A7302495A31087142
:103330000860704702000010400100100B488178BF
:10334000491CC9B281703C290FD10021817042789B
:10335000521CD2B242703C2A07D141700278521CF2
:10336000D2B20270182A00D101707047020000101A
:10337000FFF7E4BF70B51F20FEF7C4FB114C012519
:10338000E562FEF77BFCFDF705FF0EE0FDF7B0FF01
:10339000FDF7F2FEFDF788FBFDF7D6FCFEF710FE09
:1033A000A069042809D0FDF77FFBE06A0128EDD071
:1033B0002570BDE87040FEF761BC0020E062A061AE
:1033C000F6E700000000001010B5002A06DA22F02F
:1033D0000042D21D22F00703102203E0D21C22F08B
:1033E00003030C2213B19C188C4201D9012010BD9B
:1033F000024401448360C0E90021C91AD018884200
:1034000002D810600246F9E70020106010BD303885
:103410000A2801D201207047002070470549097829
:10342000002905D000684FF6FF71DFF80CC000DFFF
:103430007047000019010010354000000449097868
:10344000002903D00068DFF80CC000DF70470000DF
:10345000190100105D3F0000074910B1487B401E74
:1034600007E0D1E90002904202D9002008737047BA
:10347000087A48737047000040010010084800684F
:10348000C0010BD507480068C00707D00548803841
:103490000068002802DA0449012008707047000023
:1034A000FCED00E0800E00E03C0100104FF06042B7
:1034B000D36F002BFCD0036BD367D36F002BFCD0F2
:1034C000C07840EA0120A2F87C0070474FF06041CC
:1034D000CA6F002AFCD081F87C007047094909684E
:1034E000890B41430DD000BF00BF00BF00BF00BF2C
:1034F00000BF00BF00BF00BF00BF00BF00BF491E2C
:10350000F1D17047140100100EB5802200B109B14D
:1035100010460AE001780129FAD101A900F020F84B
:10352000042801D0002000E01020DDE9011203B0E2
:1035300000BD70B50D46040003D012B920780128F3
:1035400001D0802070BD204600F002FC28B1294641
:10355000204600F02EF8002070BD812070BD0000D4
:1035600010B504468089002822D0608904EB8000D1
:10357000006908606078022805D10021204600F02B
:10358000DBFD00F0C9FD04F10C0000BFD0E85F1FB7
:10359000491E8AB2C0E8512F0029F7D16089401C2A
:1035A00080B26081E189884201D1002060810420DD
:1035B00010BD10B500F0C0FDBDE8104000F0ACBD7E
:1035C00001228A40D143034A012801D0D1657047C6
:1035D000D163704700C0092002484FF0FF31C1633A
:1035E000C165704700C0092001228A4003490128B3
:1035F00001D08A6570478A637047000000C00920C7
:10360000002201211F4800F049F91F4CA064FEF779
:10361000CBFCA06C18B14FF4FA6100F059F9FDF73A
:1036200063F9FDF78BFFFEF7FBFCFEF719FDFFF7D3
:103630006BFE4FF6FF70FEF759FA4FF47840FEF735
:1036400061FA1248FEF758FAFEF718FBFEF7AAFADD
:103650000F4850F8C41F41F4805101600E490D48D5
:1036600008600E48416841F48021416000252078BF
:1036700010B1FEF797FA2570FEF7A2FCA069FEF7DD
:103680003DFDF4E7604C00000000001068610000A0
:1036900000C00F40040120000040034000C0024071
:1036A00010B50020FEF72EFA04A2D8210020FDF765
:1036B00015FFBDE81040FFF7B7BD00004131000025
:1036C00010B50020FEF71EFA04A2D8210020FDF755
:1036D00005FFBDE81040FEF74FBE0000413200007C
:1036E00010B50020FEF70EFA04A2D8210020FDF745
:1036F000F5FEBDE81040FEF7F1BE000041330000CA
:1037000010B50020FEF7FEF904A2D8210020FDF735
:10371000E5FEBDE81040FDF723B90000413400008C
:1037200010B50020FEF7EEF904A2D8210020FDF725
:10373000D5FEBDE81040FFF71DBE0000413500007A
:1037400010B50020FEF7DEF904A2D8210020FDF715
:10375000C5FEBDE81040FEF7A9BC000041360000E0
:1037600010B50020FEF7CEF904A2D8210020FDF705
:10377000B5FEBDE81040FFF72FBD00004137000047
:1037800010B50020FEF7BEF904A2D8210020FDF7F5
:10379000A5FEBDE81040FEF7FBBC0000413800006C
:1037A000EFF3058008B182207047EFF31480C00763
:1037B00003D0DFF80CC000DF704701F05FB80000F5
:1037C0007D48000088B0EFF3058010B1822008B07A
:1037D0007047EFF3148010F00301134806D001295D
:1037E0001BD0022911D0032919D113E008A981F3B4
:1037F00009880078C0070BD05FF0020080F31488BE
:10380000BFF34F8FBFF36F8F09E00078C00706D179
:103810000320F3E70078C00701D0FF20D7E7DFF8E7
:103820000CC000DFD3E70000A0610000ED480000FD
:10383000EFF305820AB1FFF767BEDFF808C000DFCB
:103840007047000059490000EFF305820AB10020DB
:103850007047EFF31482064B02F001025B781A43C3
:1038600003D0DFF810C000DF704701F093B800000C
:103870001801001095490000DFF80CC000DFDFF8E8
:103880000CC000DFFEE70000054A0000214A0000EE
:10389000DFF804C000DF7047594A000030B4EFF38E
:1038A000058313B1002030BC7047EFF31483064C3E
:1038B00003F001036478234303D0DFF810C000DF76
:1038C000F1E730BC01F0D4B818010010714A0000D3
:1038D000EFF305820AB182207047DFF808C000DFED
:1038E00070470000A94A0000094C4FF0FF352946F7
:1038F0002068FFF79DFF02460846102AF7D1FFF720
:10390000C7FF0028F3D0024608469047EFE70000C3
:10391000F8000010FEE7FEE7074801684FF0E020DE
:10392000416100218161072101610448016841F082
:103930007F410160401770479C61000020ED00E06E
:103940007047000038B50025294C009502236178A6
:1039500020782A46FEF75AFC0095E178A0780223E9
:103960000022FEF753FC00956179207902230022A2
:10397000FEF74CFC0095E179A07902230022FEF7C6
:1039800045FCE178A0780122FEF7D6FA617820782C
:103990000122FEF7B7FAE178A0780122FEF7B2FA29
:1039A000617820780022FEF7ADFA0121702000F046
:1039B00027FF0121002000F023FF617820780122F9
:1039C000FEF7A0FA617820780022FEF79BFA012129
:1039D000732000F015FF0021084600F011FF054696
:1039E000617820780122FEF78DFA284638BD000064
:1039F000D800001050E8001F31B10B6840E80032D9
:103A0000002AF7D108467047BFF32F8FFAE710B5A9
:103A100068B161B10B3121F00302016844680B1AEF
:103A20001B1B934205D2084609680029F5D10020E6
:103A300010BD210007D021180368C1E900320160E0
:103A400001F1080010BD4260083010BD70B50D4690
:103A5000002812D04FF6FF71084C884204D2226829
:103A60000146104600F096FB20684570044800F0BF
:103A7000D9F8BDE8704000F051BC70BD20010010C5
:103A8000841000100F4810B50D4942680E480B68AD
:103A90000068934204D00A60CB88421E1A448A8090
:103AA0008A8880B282420AD100200860054800F06E
:103AB000B9F80146BDE81040024800F08FBB10BDC8
:103AC00034010010841000103001001070B5194D41
:103AD000E86800282CD0A88A401EA882002621E091
:103AE000A06838B161684160606810B1A168816008
:103AF0006660A6600F482146183800F06FFBA08A68
:103B0000A8826078042804D10B49E08A0988084417
:103B1000A08201206070E068E860E06808B105619B
:103B2000E6602661A88A002802D1EC68002CD7D173
:103B300070BD00009C1000103001001070B5040032
:103B40000FD00D4DA17801262868827891420CD9BA
:103B500000F060FB286846702046BDE8704000F029
:103B6000DDBB064800F05EF8F7E766702146BDE869
:103B70007040024800F032BB200100108410001099
:103B800010B50446008B084320836278618B062AB7
:103B900018D0052A19D1084217D001EA0002628321
:103BA00088432083204600F060FB01206070628B18
:103BB0000821204600F055FB2146BDE8104003488F
:103BC00000F00CBB31EA0002EAD010BD84100010F6
:103BD000814202D342688A4201D8012070470268BC
:103BE0000A60BFF35F8F50E8003F0A689A42F6D13F
:103BF00040E80012002AF2D10020704768B161B19C
:103C00000022083902E00246006830B18842FAD149
:103C10002AB1006810600020704701207047002121
:103C20004160F8E70146406842684A600B7800222C
:103C3000022B05D0012B03D0032B01D0426070472B
:103C400043680BB19960426082607047810700D081
:103C50000020704770B504460020154620700122F0
:103C60006270A17084F824106060A060E060206140
:103C70002062A082E0822083608384F82500E08CAB
:103C800018B90548FFF7B6FEE06229462046BDE8B0
:103C9000704000F01DB800000003001008B10829B2
:103CA00001D2012070470144091F002201600A600F
:103CB000426010467047000003480021016003493C
:103CC0000988C1807047000034010010986100002D
:103CD00070B5C28C1C4D930802D12A88C2F38D03A3
:103CE000C26A02EB8302540700D5121F4FF08074A2
:103CF00042E9021400242646B2F1400242F8246050
:103D0000641C0E2CFAD3C4691462826201632968B0
:103D1000C90014D5112B12D94FF0FF31103B11EB14
:103D200053014FF0CC3305D042F8043C42F8083D33
:103D3000491EF9D1C16A121F8A4200D91360C06AB4
:103D40000249016070BD000094610000A52E5AE296
:103D5000C1898089081A70470122027000224270CE
:103D60008270426002814281103982818908C1815A
:103D7000704700002DE9F041044640680E464FF0C0
:103D8000000804F10C05E8B36078012701283ED053
:103D9000022813D003285CD10846FFF72BFE05004C
:103DA00057D02046FFF73EFF0446294600F056FA5A
:103DB0006770204600F059FA214621E02046FFF7BF
:103DC00031FF0646002100F049FA2189F06904EB31
:103DD00081010861D5E85F0F401C81B2C5E8501F22
:103DE0000028F7D12089401C80B22081E1898842D7
:103DF00001D1A4F808807770304600F036FA3146D9
:103E0000174800E00CE0BDE8F04100F0E7B92046BB
:103E1000FFF708FF04463246102100F022FAC7E7F8
:103E2000A089E189884216D2208904EB80000661CE
:103E3000D5E85F0F401C81B2C5E8501F0028F7D1BC
:103E40002089401C80B22081E189884201D1A4F8F8
:103E50000880BDE8F081BDE8F0410320FFF75ABDBE
:103E60008410001070B50446808915460026C0B342
:103E7000608904EB8000006908606089401C80B2A2
:103E80006081E189884200D16681606810B1607804
:103E900002280BD014F10C04D4E85F0F401E81B24D
:103EA000C4E8501F0028F7D1002070BD2046FFF75E
:103EB000B9FE0546002100F0D1F92189E86904EB3B
:103EC000810108612089401C80B22081E1898842FB
:103ED00000D12681284600F0C8F92846FFF72EFEBB
:103EE000E2E7FFE73DB10B48626801682AB120466E
:103EF00000F074F908E0012070BD616001684E6057
:103F0000006884600120607008212846FFF79EFD4C
:103F1000F1E7000020010010002814D0411C13D04C
:103F20000C4A4FF6FE7190420CD800EB4002C2EBF7
:103F3000C0120948036803EBC202521EB2FBF3F041
:103F4000884204D9084670474FF6FF70704780B228
:103F50007047000000093D00AC6100002DE9F04110
:103F60000446408820B1314DA1682A68914202D0B0
:103F7000FF20BDE8F081401E0004000C608053D19A
:103F80002968086AA04209D1E068086208E0C268AE
:103F9000A24202D1E268C26002E010460028F6D1D7
:103FA00091F824000A6A06E053681BB19B788342AB
:103FB00000D91846D268002AF6D18870DFF87080E0
:103FC0006168012611B32046FFF72CFE0746002149
:103FD00000F044F9384600F048F96680A760386A76
:103FE000E0603C622968D8F804008A7880788242D0
:103FF00001D3384616E00E4800F0F0F839460C4878
:1040000000F0ECF8286846707E700AE0D8F80410DA
:104010008A782968824207D9054800F0DFF82868C5
:1040200046700020FFF78AFD0020A2E72001001063
:104030008410001070B5184D0E460446418828685B
:1040400039B1A168814209D16088401C608000209C
:1040500070BDA060016AE1600462F5E776B18A781C
:104060008078824203D28870A06800F0DDF8606832
:1040700030B12046296800F0B1F808E0012070BD99
:1040800028686060296800204860286884600921E9
:104090003046FFF7DBFCF1E72001001070B51B484C
:1040A000012102685170006800F0B4F8184D6C7876
:1040B00018E000BF05EBC40148680278EAB1012AA4
:1040C00020D000F0FFF8E878641C844200D100247E
:1040D0000F48801CD0E84F1F491EC9B2C0E8421FDC
:1040E000002AF7D1A8780028E4D16C700948FFF7BE
:1040F00099FDBDE8704000F011B9098989B2FFF758
:104100003FFDE0E78968FFF735FEDCE7200100109E
:10411000E80E0010841000100548017811B101214B
:104120004170704703494FF08050086070470000AD
:104130002801001004ED00E0F0B4154DAB1CEE7842
:104140004FEA0507D3E84F2FB24202D1BFF32F8FBA
:1041500011E0521CD4B2C3E8424F002AF2D100BF92
:10416000D7E84F2F541CB44200D10024E4B2C7E872
:10417000434F002BF4D1EB78934205D905EBC202F3
:10418000C2E90101F0BC7047F0BC0220FFF7C2BBDE
:10419000E80E0010104A10B5D368ABB113469B8AE5
:1041A00003E08CB12246A48A2344D4688B42F8D31E
:1041B000C460D0600261C46804B12061591A818270
:1041C000908A401A908210BD0024C460D060C91A41
:1041D00002619182848210BD9C10001030B502787B
:1041E0000023022A03D0012A01D0032A00D101238F
:1041F0008C7800E01046426812B19578A542F9D259
:104200004A6041601BB102B19160886030BD0020FE
:10421000FBE7000003494A68426000228260486070
:10422000704700008410001010B5836804462BB955
:10423000607801280ED1084B03E09B6818780028AD
:10424000FBD0204600F026F82146BDE81040184675
:10425000FFF7C4BF10BD000084100010806A016227
:104260007047806AC0E90812704710B501690029DB
:104270000ED0C268CA60C36800223BB18B8A848AB0
:1042800023448B82C3681961C26000E08A820261A4
:1042900010BD0000816839B142684A604168002958
:1042A00001D0806888607047054906E04A6882420C
:1042B00002D140684860704711460029F6D1704726
:1042C0008410001010B5416881B1FFF7ABFC0446C3
:1042D000FFF7CBFF0120607001462046FFF7BEFFCD
:1042E0002146BDE810400348FFF778BF4188491CCC
:1042F000418010BD8410001006480068D0E90A1003
:10430000814203D300680449884202D00120FFF7AC
:1043100001BB704720010010A52E5AE20749022276
:1043200048604270064A1278002A05D006C98A42BF
:1043300002D0C078FFF7CAB8704700002001001013
:104340003C01001070B5FFF799F800200446204AA0
:10435000204902E042F82040401C0B889842F9D3E3
:104360001D48342201881D48FFF72EF81C4800889C
:1043700080B240F000421B4801681B48FFF724F858
:104380001A48082201881A480068FFF71DF8194DDD
:10439000FF20194AE870EC8400212846FFF75AFCF8
:1043A000164804210170446015480170C46004611E
:1043B0008482144815490560022068701248047010
:1043C00044700978C170BDE87040FFF775BC00000B
:1043D0006C0F001092610000B461000088010010B1
:1043E00094610000B861000000030010DC6100006F
:1043F000E000001050100010173900008410001069
:104400009C10001020010010E80E0010C061000098
:104410001B4810B5016841F47F01016000684FF04E
:104420007F4101EA00201649C0431439B0FA80F0F8
:104430000968C0F10800C1F30221814200D3481C81
:104440000F49091F0B686FF08072824063F31702F7
:104450000A60FFF761FA0B49002808600EDB00F1E3
:10446000E021FF2281F8002400F01F020121914089
:104470004009800000F1E020C0F8001110BD0000EC
:1044800020ED00E02C0100100C4810B5026801215D
:1044900051700068FFF7BEFEFFF7F4FA08480168A4
:1044A000491C0160FFF712FB00F030FB0548FFF7E5
:1044B000B9FBBDE81040FFF731BF0000200100103C
:1044C0003001001084100010002805D0810702D1AF
:1044D0000178002900D000207047000030B50B4C57
:1044E0000023626805E095688D4204D8134612687F
:1044F000491B002AF7D10260816012B19568691AE0
:1045000091600BB1186030BD606030BD18010010C3
:104510000D4B0022596803E0814204D00A46096825
:104520000029F9D104E019B1016822B1116003E05A
:104530004FF0FF3070475960016819B18A68806890
:104540001044886000207047180100102DE9F041E8
:104550001E46174680460D4611F0FF0F00D14D1C38
:104560001848FFF747FA041E16D0280AE762E084CD
:10457000E9B242462046E661FFF76CFB012512488E
:10458000124905E000EB850252F8042C32B16D1C93
:104590000A889542F6D90020BDE8F081002DFAD0B6
:1045A00000EB850040F8044C0948E570007818B12C
:1045B00001212046FEF77AFF2046FFF7BFFA284682
:1045C000EAE70000880100106C0F00109261000003
:1045D0003C0100102DE9F05F584DDFF85891DFF8ED
:1045E000588129684FF0010A002618B1CA78AB46F5
:1045F000824243D14E70FBF786FE29688862FFF73E
:104600007BFE2868046A1FE06068C0B12046FFF79F
:1046100009FB07460021FFF721FE3846FFF725FE7C
:1046200087F801A039464648FFF7D8FDE168A4F8AD
:1046300002A0A760386AE0603C620C4604E0E068D3
:104640006680A660E6600446002CDDD12868C2784A
:1046500008EB820141F8046CC16A3A48FFF7B8FAE6
:104660002868C66299F8001011B10021FEF71EFFFC
:1046700035482968FFF7ACFA2E6056E033490988BF
:1046800088420CD808EB800858F8045C3DB12846F5
:10469000FFF700FE2846FFF7E8FD2C6A22E0FF2026
:1046A000BDE8F09F6068C0B12046FFF7BBFA07463F
:1046B0000021FFF7D3FD3846FFF7D7FD87F801A0AB
:1046C00039461F48FFF78AFDE168A4F802A0A760F9
:1046D000386AE0603C620C4604E0E0686680A660F0
:1046E000E6600446002CDDD148F8046C1548E96A00
:1046F000FFF76EFAEE6299F8000018B10021284623
:10470000FEF7D4FE29461048FFF762FA0C48DBF8A2
:10471000001040688B7882789A4209D981F801A00C
:104720000748DBF80010FFF759FD0020FFF706FAF5
:104730000020B5E73C0100106C0F001020010010B4
:104740008410001000030010880100109261000026
:1047500070B51A4D80B11A4A128890421FD8194A72
:1047600002EB800050F8044CCCB1A17084F8241006
:104770002868A04205D014E028688170286880F875
:104780002410114840688078884215D90E4829685D
:10479000FFF724FD29680120487000200AE0FF206F
:1047A00070BD2046FFF740FD6078012804D106481F
:1047B000FFF738FAFFF7C2F9002070BD20010010A2
:1047C000926100006C0F0010841000100248006815
:1047D000002800D0C07870472001001011B5074CA8
:1047E00081B00122E369694601A89847A06A804721
:1047F000C007FBD19DF800001CBD00003062000026
:104800002DE9F04100260F468046012924D00022E0
:10481000194CE179A079FDF78FFB0725E178A078A5
:104820000022FDF76FFB0120FEF758FE012F15D087
:10483000E179A079FDF75AFBA8403043C6B2E17890
:10484000A0780122FDF75EFB0120FEF747FE6D1EFA
:10485000E4D53046BDE8F0810122D9E70120A84027
:1048600010EA080F01D0012200E00022E179A079CE
:10487000FDF748FBE3E70000D800001010B5134C2B
:10488000207860B91248400705D1124801681048E5
:10489000FFF704FA08B1852010BDFFF753FD0E495C
:1048A000FF2009688870207858B900210B4800F073
:1048B00041F80B49086000210A4800F06BF80A49EA
:1048C0000860012020700020607010BD18010010E9
:1048D000700C0010BC61000020010010D4610000C9
:1048E000F8000010C4610000F400001070B50F4D16
:1048F000687808B1002070BD0D4C206890F8241035
:104900000020FFF725FF2068C178FF2903D1816AC5
:10491000203181F30988616811B96060002020604E
:10492000FFF776FD01206870E4E700001801001031
:104930002001001010B5040005D0216819B160688D
:1049400008B102780AB1002010BD8900103189B287
:10495000FFF702FA606810BD3EB504000D464FF047
:10496000800012D0217801290FD12846FFF7D4FA10
:104970000246204601A9FFF775FA012801D0102050
:1049800003E00DB1402000E00020DDE9011203B09A
:1049900030BD000070B50E4604002BD0206848B32F
:1049A000B4F9040010F1030F24DB032822DCE168D2
:1049B00029B11148FFF72BF805001BD000E00025B6
:1049C000B4F90400E168001D40EA012133462A469B
:1049D0002068FFF7BBFD40B1084901EB80000849A2
:1049E00050F8040C826A516370BD1DB1294602481B
:1049F000FFF704F9002070BD700C00106C0F001060
:104A00007938000010B5FFF7E1FE002804D0034913
:104A100001EB800050F8040C10BD00006C0F00107A
:104A200010B5FFF751FD18B1C18C19B1C46A02E08D
:104A3000802010BD0024C078FFF7CCFDFF2806D0F1
:104A40001CB121460348FFF7D9F8002010BD812092
:104A500010BD0000700C001010B5FFF7F7F820B182
:104A600041690A680169104610BD0020014610BD69
:104A700010B503000CD0186850B15868002808D051
:104A800009B1012904D1074C24680CB104790CB197
:104A9000002010BD00240460012404714171C0E9AC
:104AA000042310BDF400001070B50E46FFF7CEF8D9
:104AB000040016D0BEB1144A00214FF47A73106876
:104AC0001268401E41F1FF35E6FB0305294600232D
:104AD000FBF7AEFC0546207901280CD0022808D14E
:104AE00003E0802070BD862070BD2046FFF710FDDA
:104AF00020B1812070BD02202071E560294620464A
:104B0000FFF7ECFC002070BDAC6100002DE9F04126
:104B1000134E7468002C1CD0A068124F401E4FF03A
:104B20000108A06012E0254624687460002229462E
:104B30003868FEF7FEFC10B10420FEF7EBFE687942
:104B4000012808D085F80480002C02D0A068002835
:104B5000E9D0BDE8F0812846E968FFF7BFFCF3E73C
:104B600018010010F800001038B50D4C0546012161
:104B7000626A1320904770208DF8000000208DF8A5
:104B800001008DF802506269032168469047A06ACF
:104B90008047C007FBD10021626A1320904738BDCF
:104BA0003062000038B5010A8DF80010054C8DF810
:104BB00001000221626968469047A06A8047C007E9
:104BC000FBD138BD30620000054810B50121426AB2
:104BD00013209047BDE810407220FFF7FFBD000092
:104BE0003062000002480021426A13201047000092
:104BF0003062000038B50D4670218DF80010010AB2
:104C00008DF80110154C8DF802000121626A132005
:104C100090476269032168469047A06A8047C007B1
:104C2000FBD10021626A1320904772208DF80000AA
:104C3000280A8DF801008DF802500121626A1320C4
:104C400090476269032168469047A06A8047C00781
:104C5000FBD10021626A1320904738BD306200000A
:104C6000713300005001001000000000000000003F
:104C70000000000000000000000000000000000034
:104C80000000000000000000000000000000000024
:104C90000000000000000000000080018001800191
:104CA00080018001800180018001800180018001FC
:104CB00080018001000000008001800100000000F0
:104CC000000000000000000000000000CC00CC004C
:104CD000CC00CC00CC00CC000000000000000000A4
:104CE00000000000000000000000000000000000C4
:104CF00000000000000000000000000000000000B4
:104D000000000000600C600C600C30063006FE1FD6
:104D1000FE1F300638071803FE1FFE1F1803180376
:104D20008C018C018C01000000008000E003F80F72
:104D30009C0E8C1C8C188C009800F801E007800EEB
:104D4000801C8C188C189C18B80CF00FE0038000A5
:104D500080000000000000000000000000000E18AD
:104D60001B0C110C11061106110311039B018E017E
:104D7000C038C06C60446044304430441844186CFF
:104D80000C380000000000000000E001F0033807CC
:104D9000180618063003F001F000F8009C310E33BD
:104DA000061E061C061C063FFC73F02100000000D6
:104DB0000000000000000000000000000C000C00DB
:104DC0000C000C000C000C000000000000000000B3
:104DD00000000000000000000000000000000000D3
:104DE000000000000000000000000002000380013D
:104DF000C000C000600060003000300030003000B3
:104E0000300030003000300060006000C000C000A2
:104E10008001000300020000000020006000C000CC
:104E20008001800100030003000600060006000662
:104E30000006000600060006000300038001800152
:104E4000C000600020000000000000000000000022
:104E500000000000C000C000D806F807E0013003E1
:104E60003807000000000000000000000000000003
:104E70000000000000000000000000000000000032
:104E80000000000080018001800180018001FC3F62
:104E9000FC3F800180018001800180010000000052
:104EA0000000000000000000000000000000000002
:104EB00000000000000000000000000000000000F2
:104EC00000000000000000000000800180010001DF
:104ED0000001800000000000000000000000000051
:104EE00000000000000000000000000000000000C2
:104EF000E007E007000000000000000000000000E4
:104F000000000000000000000000000000000000A1
:104F10000000000000000000000000000000000091
:104F200000000000000000000000C000C000000001
:104F300000000000000000000000000C000C000653
:104F400000060006000300030003800380018001C7
:104F50008001C000C000C0006000600000000000D0
:104F600000000000000000000000E003F007380E21
:104F7000180C0C180C180C180C180C180C180C1811
:104F80000C180C18180C380EF007E0030000000095
:104F90000000000000000000000000018001C001CE
:104FA000F001980188018001800180018001800169
:104FB00080018001800180018001800100000000EB
:104FC00000000000000000000000E003F80F180CD3
:104FD0000C180C1800180018000C000600038001C3
:104FE000C000600030001800FC1FFC1F0000000023
:104FF00000000000000000000000E001F807180EAB
:105000000C0C0C0C000C0006C003C007000C0018B0
:1050100000180C180C18180CF807E003000000002A
:1050200000000000000000000000000C000E000F57
:10503000000F800DC00C600C600C300C180C0C0CB8
:10504000FC3FFC3F000C000C000C000C00000000BA
:1050500000000000000000000000F80FF80F18002A
:1050600018000C00EC03FC071C0E001C00180018B4
:1050700000180C181C0C180EF807E00300000000C4
:1050800000000000000000000000C007F00F381C06
:10509000181818000C00CC03EC0F3C0E1C1C0C184C
:1050A0000C180C18181C380EF007E0030000000064
:1050B00000000000000000000000FC1FFC1F000CAE
:1050C00000060006000380038001C001C000E0006C
:1050D0006000600070003000300030000000000010
:1050E00000000000000000000000E003F007380EA0
:1050F000180C180C180C3806F007F007180C0C18D0
:105100000C180C180C18380CF80FE0030000000005
:1051100000000000000000000000E003F007380E6F
:105120001C0C0C180C180C181C1C381EF81BE01951
:105130000018000C000C1C0EF807F0010000000025
:10514000000000000000000000000000000000005F
:10515000000000008001800100000000000000004D
:10516000000000000000000080018001000000003D
:10517000000000000000000000000000000000002F
:10518000000000008001800100000000000000001D
:10519000000000000000000080018001000100010B
:1051A000800000000000000000000000000000007F
:1051B00000000000000000000010001C800FE00351
:1051C000F8001800F800E003800F001C0010000039
:1051D00000000000000000000000000000000000CF
:1051E0000000000000000000F81F000000000000A8
:1051F000F81F000000000000000000000000000098
:10520000000000000000000000000000000000009E
:10521000000000000000000008003800F001C00796
:10522000001F0018001FC007F00138000800000030
:1052300000000000000000000000E003F80F180C60
:105240000C180C180018000C000600038001C000A8
:10525000C000C00000000000C000C000000000004E
:10526000000000000000000000000000E007181827
:105270000420C229224A114409440944094409224C
:105280001113E20C024004201818E007000000008F
:105290000000000000000000000080038003C00642
:1052A000C006C006600C600C301830183018F83F8B
:1052B000F83F1C700C600C6006C006C000000000C7
:1052C00000000000000000000000FC03FC0F0C0CBC
:1052D0000C180C180C180C0CFC07FC0F0C180C30DC
:1052E0000C300C300C300C18FC1FFC0700000000C8
:1052F00000000000000000000000C007F01F383868
:105300001C300C7006600600060006000600060051
:10531000060006600C701C30F01FE0070000000063
:1053200000000000000000000000FE03FE0F060E5B
:1053300006180618063006300630063006300630ED
:10534000063006180618060EFE0FFE0300000000C9
:1053500000000000000000000000FC3FFC3F0C00CB
:105360000C000C000C000C00FC1FFC1F0C000C00BF
:105370000C000C000C000C00FC3FFC3F0000000087
:1053800000000000000000000000F83FF83F180097
:105390001800180018001800F81FF81F180018004F
:1053A000180018001800180018001800000000006D
:1053B00000000000000000000000E00FF83F3C7813
:1053C0000E6006E007C00300030003FE03FE03C0F7
:1053D00007C006C00EC03CF0F83FE00F0000000020
:1053E000000000000000000000000C300C300C3009
:1053F0000C300C300C300C30FC3FFC3F0C300C30CF
:105400000C300C300C300C300C300C300000000034
:105410000000000000000000000080018001800109
:105420008001800180018001800180018001800174
:105430008001800180018001800180010000000066
:10544000000000000000000000000006000600064A
:10545000000600060006000600060006000600061C
:105460000006180618063807F003E00100000000E7
:105470000000000000000000000006300618060CC6
:10548000060606038601C60066007600DE008E0171
:1054900006030606060C061806300660000000002B
:1054A00000000000000000000000180018001800B4
:1054B000180018001800180018001800180018002C
:1054C0001800180018001800F81FF81F000000004E
:1054D000000000000000000000000EE01EF01EF0C2
:1054E0001EF036D836D836D836D866CC66CC66CCE0
:1054F000C6C6C6C6C6C6C6C686C386C300000000EA
:10550000000000000000000000000C301C303C30A7
:105510003C306C306C30CC30CC308C310C330C33B4
:105520000C360C360C3C0C3C0C380C3000000000E7
:1055300000000000000000000000E007F81F1C3819
:105540000E70066003C003C003C003C003C003C0E5
:1055500003C006600E701C38F81FE0070000000052
:1055600000000000000000000000FC0FFC1F0C38D1
:105570000C300C300C300C300C18FC1FFC070C00ED
:105580000C000C000C000C000C000C0000000000D3
:1055900000000000000000000000E007F81F1C38B9
:1055A0000E70066003E003C003C003C003C003C065
:1055B00007E006630E3F1C3CF83FE0F700C0000028
:1055C00000000000000000000000FE0FFE1F063873
:1055D0000630063006300638FE1FFE0706030606B4
:1055E000060C06180618063006300660000000009B
:1055F00000000000000000000000E003F80F1C0C99
:105600000C180C180C001C00F803E00F001E0038EA
:10561000063006300E301C1CF80FE00700000000BA
:1056200000000000000000000000FE7FFE7F8001FF
:105630008001800180018001800180018001800162
:105640008001800180018001800180010000000054
:10565000000000000000000000000C300C300C3096
:105660000C300C300C300C300C300C300C300C305A
:105670000C300C300C301818F81FE0070000000048
:10568000000000000000000000000360063006304B
:1056900006300C180C180C18180C180C380E3006A4
:1056A0003006700760036003C001C0010000000005
:1056B000000000000000000000000360C361C3613F
:1056C000C3616633663366336633663366336C1B99
:1056D0006C1B6C1B2C1A3C1E380E380E0000000090
:1056E000000000000000000000000FE00C70183007
:1056F0003018700C600EC00780038003C003E00602
:10570000700C301C18180C300E6007E00000000010
:105710000000000000000000000003C006600C3024
:105720001C383818300C6006E007C0038001800187
:105730008001800180018001800180010000000063
:1057400000000000000000000000FC7FFC7F006003
:1057500000300018000C000600038001C00060004B
:10576000300018000C000600FE7FFE7F00000000E5
:1057700000000000000000000000E003E003600003
:105780006000600060006000600060006000600019
:105790006000600060006000600060006000600009
:1057A0006000E003E0030000000030003000600013
:1057B00060006000C000C000C000C0018001800126
:1057C0008001000300030003000600060000000043
:1057D00000000000000000000000E003E003000300
:1057E00000030003000300030003000300030003A1
:1057F0000003000300030003000300030003000391
:105800000003E003E003000000000000C001C0014D
:1058100060036003600330063006180C180C0000AB
:105820000000000000000000000000000000000078
:105830000000000000000000000000000000000068
:105840000000000000000000000000000000000058
:1058500000000000000000000000FFFFFFFF00004C
:10586000000000000000000000000C000C000C0014
:105870000C000C000C000000000000000000000004
:105880000000000000000000000000000000000018
:105890000000000000000000000000000000000008
:1058A00000000000F003F8071C0C0C0C000FF00FB8
:1058B000F80C0C0C0C0C1C0FF80FF018000000007A
:1058C0000000000000000000000018001800180090
:1058D00018001800D803F80F380C181818181818E2
:1058E000181818181818380CF80FD8030000000002
:1058F00000000000000000000000000000000000A8
:1059000000000000C003F007300E180C180018004B
:1059100018001800180C300EF007C003000000003B
:10592000000000000000000000000018001800182F
:1059300000180018C01BF01F301C18181818181871
:10594000181818181818301CF01FC01B0000000091
:105950000000000000000000000000000000000047
:1059600000000000C003F00F300C1818F81FF81FDB
:10597000180018003818301CF00FC0070000000095
:1059800000000000000000000000800FC00FC000F9
:10599000C000C000F007F007C000C000C000C00099
:1059A000C000C000C000C000C000C0000000000077
:1059B00000000000000000000000000000000000E7
:1059C00000000000E00DF80F180E0C0C0C0C0C0C75
:1059D0000C0C0C0C0C0C180EF80FE00D000C0C0C41
:1059E0001C06F807F001000000001800180018005D
:1059F00018001800D807F80F381C181818181818AD
:105A00001818181818181818181818180000000076
:105A100000000000000000000000C000C000000006
:105A200000000000C000C000C000C000C000C000F6
:105A3000C000C000C000C000C000C00000000000E6
:105A400000000000000000000000C000C0000000D6
:105A500000000000C000C000C000C000C000C000C6
:105A6000C000C000C000C000C000C000C000C00036
:105A7000C000F8007800000000000C000C000C00D2
:105A80000C000C000C0C0C060C038C01CC006C0000
:105A9000FC009C018C030C030C060C0C00000000A5
:105AA00000000000000000000000C000C000C000B6
:105AB000C000C000C000C000C000C000C000C000E6
:105AC000C000C000C000C000C000C0000000000056
:105AD00000000000000000000000000000000000C6
